:10200000000C002001270000252C00002D2C0000D2
:102010002D2C00002D2C00002D2C00002D2C00005C
:102020002D2C00002D2C00002D2C00002D2C00004C
:102030002D2C00002D2C00002D2C00002D2C00003C
:102040002D2C00002D2C00002D2C00002D2C00002C
:102050002D2C00002D2C00002D2C00002D2C00001C
:10206000392900002D2C00002D2C00002D2C000003
:102070002D2C00002D2C00002D2C00002D2C0000FC
:102080002D2C00002D2C00002D2C00002D2C0000EC
:102090002D2C00002D2C00002D2C00002D2C0000DC
:1020A0002D2C00002D2C00002D2C00002D2C0000CC
:1020B000612E00002D2C00002D2C00002D2C000086
:1020C00010B5064C2378002B07D1054B002B02D00E
:1020D000044800E000BF0123237010BDE8FCFF1F8F
:1020E00000000000142F000008B5084B002B03D09F
:1020F0000748084900E000BF07480368002B03D0E9
:10210000064B002B00D0984708BDC04600000000D9
:10211000142F0000ECFCFF1FE8FCFF1F0000000074
:10212000164B002B00D1144B9D46402292029A1A66
:10213000924600218B460F461348144A121A00F0AB
:10214000DBFE0F4B002B00D098470E4B002B00D02E
:1021500098470020002104000D000D48002802D0FF
:102160000C4800E000BF00F0A1FE2000290000F0B4
:10217000C5F900F085FEC04600000800000C0020F4
:102180000000000000000000E8FCFF1F00FEFF1F31
:102190000000000000000000704708B500F058F88B
:1021A00008BD08B500F06EF808BD08B500F06AF883
:1021B00008BD08B5012100F02DF808BD08B50021C3
:1021C00000F028F808BD08B500F040FA08BD7047D7
:1021D00008B5012803D172B604231B68984708BDCF
:1021E00010B5094C0021201C082200F0F0F8012352
:1021F000201C637000F03CFC044B05492822186049
:1022000000F0BCFC10BDC04634FDFF1F08FDFF1FE1
:102210000CFDFF1F70B50C4C051C297020680E1CAE
:1022200000F0DCFC20680949282200F0A7FC01230B
:102230006B70002E07D16B68002B04D020685968A2
:102240001A8900F06BFC70BD08FDFF1F0CFDFF1F1D
:10225000436810B5DB68041C002B01D000209847B0
:102260000023636001236370044C206800F0B6FC17
:1022700020680349282200F081FC10BD08FDFF1FE3
:102280000CFDFF1F70B54378041C0120034219D0D8
:10229000204B00221A70204B187800F071F8606013
:1022A000002836D00389002B26D0027C0423012A83
:1022B00000D102236370427C013A51424A419200AC
:1022C000134325E05A0724D51249134A0B78D21834
:1022D00055786268002A1CD016899E4219D9526826
:1022E000D5540133DBB262680B701189994210D169
:1022F000D368002B00D09847084D286800F06EFC8A
:1023000028680549282200F039FC00236360012376
:10231000637070BD04FDFF1F0CFDFF1F08FDFF1F54
:10232000064B012806D11A78022A03D1044A1188E3
:1023300008431080012018707047C04608FCFF1F3A
:102340003EFDFF1F08B5044B04481988002289B2DE
:1023500000F03AF908BDC04642FDFF1FCCFDFF1F4B
:1023600008B5012806D1044B04481988002289B217
:1023700000F02AF908BDC04642FDFF1FCCFDFF1F3B
:1023800010B5002314225A430549545C844201D1FC
:10239000881803E00133062BF4D1002010BDC0469D
:1023A0000CFCFF1F30B50B1C5C1A94420EDA44BAC9
:1023B0001D78A4B26C40E0B20009444020034440C0
:1023C000A4B2E0B2400160400133EDE730BD10B58A
:1023D000031C1C1AA4B2944202D219700133F8E70C
:1023E00010BD000010B5054C01236080211C0422A3
:1023F00000202380FFF7D6FFA08010BD00FCFF1F48
:1024000038B50B4C0020211C0422FFF7CBFFA3881A
:102410000025834207D16388012B04D12588023D22
:102420006B425D41EDB20020FFF7DCFF281C38BD98
:1024300000FCFF1F002110B50A1C094800F0C4F879
:10244000084C606A00F06CFA074800F0D5F8606A42
:1024500000F06CFA05480649002200F0B5F810BDFE
:10246000CCFDFF1F94FDFF1FB80B0000D8FDFF1F20
:102470001027000070B51C4EB06900F0B9F91B4B75
:102480001B4D1A781B4C824202D12A78012A19D19D
:102490001870012810D100210A1C174800F094F888
:1024A0000021201C0A1C00F08FF8C82000F0A4F8BE
:1024B000F06900F0E5F905E0FA21201C890000220E
:1024C00000F082F8201C00F08DF8012809D1F06995
:1024D00000F0DCF90021201C0A1C00F075F8FFF761
:1024E000A9FF00232B7070BD94FDFF1F44FDFF1F4B
:1024F00084FCFF1FF0FDFF1FD8FDFF1F38B500F063
:10250000F7FB00F06FFCFFF77BFFFFF769FEFFF7BB
:102510005EFE00F037F80A2118480A1C00F054F853
:10252000174C2388002BFBD0238801252B4208D091
:1025300023880220AB432380FFF754FF281CFFF7BA
:1025400047FE228804231A4204D022889A4322801C
:10255000FFF790FF228808231A4204D022889A436A
:102560002280FFF767FF228810231A42D8D02288E2
:102570009A432280FFF75EFFD2E7C046E4FDFF1FCB
:102580003EFDFF1F0C4A002301211360117193606F
:102590000A4A0420136011719360D080084A082011
:1025A000136011719360D080064A136011719360BB
:1025B0001023D3807047C046F0FDFF1FE4FDFF1FCE
:1025C000CCFDFF1FD8FDFF1F054B30B51C88C5880B
:1025D000AC431C80002301600371826030BDC046A3
:1025E0003EFDFF1F021C00790023C0B2012801D16B
:1025F000137100E0181C7047034B00221A601A6820
:102600008242FCD37047C04648FDFF1F026810B5E8
:10261000031C002A01D1002015E00268013A026083
:1026200000680028F7D101221A71D988002905D045
:1026300005490888DC8820430880101C9A68002A15
:1026400001D09A681A6010BD3EFDFF1F08B5094B06
:1026500009481A6801321A60FFF7D8FF0748FFF7E8
:10266000D5FF0748FFF7D2FF0648FFF7CFFF01204D
:1026700008BDC04648FDFF1FE4FDFF1FF0FDFF1F22
:10268000CCFDFF1FD8FDFF1F10B588421BD0002ACC
:1026900019D00B1C03439C0705D1032A03D908C991
:1026A000043A08C0F3E7DC0707D4012A05D90B88F0
:1026B000023A038002310230E9E70B78013A0370F5
:1026C00001310130E3E710BD38B50B4D0024002D7A
:1026D00010D02B191968002906D02B1958689A6850
:1026E000FFF7D2FF0C34F4E75A68002AF5D19B6853
:1026F000002BF2D138BDC0461C3000007047704737
:102700000A4B181C002805D0854681B00020C04324
:10271000009001B0FFF7F2FF00F08AFAFFF7D4FF54
:10272000FFF7EDFFFFF7FCFCFEE7C046000C0020C2
:102730000A4B0B4A20211060586988435861186879
:1027400088431860074B08495869014080204000C1
:1027500001435961054B101C1A60704780F00F400F
:102760004CFDFF1F00B00440FFF8FFFE94FDFF1F6B
:102770000A4B0B4A02211060586988435861186857
:1027800088431860074B0849586801408020400082
:1027900001435960054B101CDA60704780F00F4010
:1027A00050FDFF1F00B00440FFF8FFFE94FDFF1F27
:1027B000094B0A4A18600A49506901405161094AA7
:1027C0000949906F01408020400001439167074A0A
:1027D000181C93617047C04654FDFF1F00F10F4065
:1027E000FFFFFFBF00D00440FFF8FFFE94FDFF1F76
:1027F000024B18694000C00F7047C04600F10FF847
:102800000A4B0B4A802110605869084358611868C8
:1028100088431860074B0849D86901408020400070
:102820000143D961054B101C1A617047C0F00F407D
:1028300058FDFF1F00C00440FFF8FFFE94FDFF1F7E
:102840000A4B0B4A102110605869084358611868F8
:1028500001431960074B0849186901408020400076
:1028600001431961054B101CDA61704780F00F407D
:102870005CFDFF1F00B00440FFF8FFFE94FDFF1F4A
:10288000014B10229A60704780F00FF8014B102224
:102890005A60704780F00FF80B4B0C4A8021106093
:1028A0005869490201435961186809490140196092
:1028B000084B0949186C014080204000014319640D
:1028C000064B101C1A62704700F10F4060FDFF1F9D
:1028D000FFFFFEFF00D00440FFF8FFFE94FDFF1F46
:1028E0000A4B0B4A08211060586908435861186860
:1028F00001431960074B0849D86801408020400017
:102900000143D960054B101C5A62704780F00F409C
:1029100064FDFF1F00B00440FFF8FFFE94FDFF1FA1
:10292000014B08229A60704780F00FF8014B082293
:102930005A60704780F00FF8F8B54B4B4B4C1D6850
:10294000237ADBB21A0717D5227A0E210B400A210F
:102950008A4313432372E37812221343E370A3786C
:1029600010229343A370A2787F231340A370A27810
:1029700080231343A37076E0E378E2781221DBB280
:102980008A431A43E270A678202216406BD15A0679
:1029900025D504271F4068691CD0FFF70FFCA378DA
:1029A00010221343A370AB89EA899A420FD90133ED
:1029B000AB812B695A1C2A611B782371AA89EB8988
:1029C0009A4201D0002444E0EE81012441E0CC236E
:1029D00023713DE0FFF7EDFBA37810220AE01022FF
:1029E000181C1040EED1A67816401BD001210B40D8
:1029F00004D0A3789343A3702379E3E7AA89E889F5
:102A000090420CD90132AA812A69501C286112789F
:102A10002271A889EA899042D4D1EB81D5E7CC22F2
:102A20002271CFE76B88AA889A4210D901336B8054
:102A3000AB685A1CAA6022791A706869FFF7B5FB67
:102A40006A88AB889A42BDD1AE80022401E0237926
:102A5000341CE30702D56869FFF79FFBA20702D584
:102A60006869FFF79EFBF8BD68FDFF1F0060064028
:102A7000214A224BF0B5002150611A602048214BB9
:102A80001170C5584024254391805180D181918196
:102A9000C5501D4B022099709C71D8701B481C4E6C
:102AA000476880253740AD002F43476007683E40A8
:102AB000354305601748C225AD004659C027BE43BF
:102AC0004651066880256D0035430560CC2018709E
:102AD000082059719971187280205870D9729872B3
:102AE00098788021014399709978101C0C439C7050
:102AF000094B5A61F0BDC0466CFDFF1F68FDFF1F0A
:102B000000700440341000000060064000A0044043
:102B1000FFF8FFFE00E100E094FDFF1F73B5031C0A
:102B2000002A01D1002422E0C489002C1ED16D4668
:102B3000EFF3108072B6E8710E480735067801365B
:102B4000F6B20670012E02D12E780B4D2E70DA816E
:102B5000002219619A810378013BDBB20370934232
:102B6000E0D1054B187880F3108800E00824201C81
:102B700076BDC04684FDFF1FFCFDFF1F73B5031C1F
:102B8000002A01D1002422E08488002C1ED16D4649
:102B9000EFF3108072B6E8710E48073506780136FB
:102BA000F6B20670012E02D12E780B4D2E709A804F
:102BB000002299605A800378013BDBB20370934294
:102BC000E0D1054B187880F3108800E00824201C21
:102BD00076BDC04684FDFF1FFCFDFF1F13B50F4BE4
:102BE0006A461978041C0131C9B2EFF3108072B63D
:102BF000D07119700732012902D11178084A117079
:102C00000022A2801A78013AD2B21A70002A03D1A7
:102C1000034B187880F31088002016BD84FDFF1F39
:102C2000FCFDFF1F08B5FFF7B7FA08BDFFBE7047F0
:102C3000234B244A244910B5D150244B882200212B
:102C4000520199502248C02292021A50214AF8217A
:102C50009C58890121439950995801242143995046
:102C60001D4A082194780C4202D094782143917037
:102C70001A4900221A505C581948204058501C68C4
:102C8000C0200003204318605C5816482040802470
:102C9000640420435850144B062119705A70D87898
:102CA0001F210140D9701149802008701A715A7192
:102CB0009A79D106FCD599790C221142FBD110BD2D
:102CC000080D000000E000E000200000007004405B
:102CD000441000003810000000D00740041000002D
:102CE000FFFFFCFFFFFFFFFC0040064000500640D6
:102CF00010B5234B1F215A7900248A435A711A793F
:102D000007218A431A711F4B73211A788A43502175
:102D10000A431A705A7863218A4340210A435A7041
:102D20009A7819218A439A70174B184A1C70184BCD
:102D3000196D0A40E021C9000A431A65154AC123EA
:102D40009B00D05814490140D150201CFFF7F0FCE3
:102D5000201C00F027F8201CFFF70AFD201CFFF7BD
:102D60004FFD201CFFF724FD201CFFF769FD201CF0
:102D7000FFF792FD201CFFF7B3FD62B610BDC04601
:102D800000F0074000D0074000E00740FFF8FFFEDA
:102D90000090044000E100E0FFFF3FFF08B5FFF7AF
:102DA00012FA08BD38B5084C084DA0600123002078
:102DB0002371AC6000F018F82060002801D1A860F1
:102DC00000E0201C38BDC04688FDFF1F94FDFF1F9A
:102DD00008B5034B9B689868FFF7E0FF08BDC04645
:102DE00094FDFF1F7047000070B5164C021C606810
:102DF000002822D1144B15495A60154A012013604E
:102E0000144A18708D58C02628438850124A8021D1
:102E100011602021916004215160C7200F4980007A
:102E20000D58B5430D500D688020400528430860BB
:102E300041211160181C636003E003784260013394
:102E4000037070BD94FDFF1FC0FDFF1F00700440A4
:102E5000BCFDFF1F381000000000044000E100E04E
:102E600008B5054B80201A68044B196801431960A6
:102E70005068FFF7ADFF08BDBCFDFF1F0000044018
:102E8000084B10B5041C002B02D0002100E000BF4D
:102E9000054B1868836A002B00D09847201C00F06F
:102EA00033F8C04600000000102F000070B50E4B34
:102EB0000E4D0024ED1AAD101E1CAC4204D0A30030
:102EC000F35898470134F8E700F024F8084B094D0F
:102ED0000024ED1AAD101E1CAC4204D0A300F35820
:102EE00098470134F8E770BD342F0000342F0000FC
:102EF000342F0000382F0000031C8218934202D0A8
:102F000019700133FAE77047FEE7C046430000003E
:102F100088FCFF1FF8B5C046F8BC08BC9E46704749
:0C2F2000F8B5C046F8BC08BC9E467047DF
:082F2C00F4F1FF7F0100000039
:042F3400E920000090
:042F3800C1200000B4
:102F3C00010000000100000086FCFF1F02000000E1
:102F4C0000000000010000000200000040FDFF1F17
:102F5C00020000000000000001000000030000005F
:102F6C0042FDFF1F02000000612300000101000070
:102F7C0004000000C8FDFF1F0100000045230000F5
:102F8C00000100008000000008FCFF1F0100000091
:102F9C002123000001010000550000003CFDFF1F33
:102FAC00020000000000000001000000010002000F
:102FBC000000000000000000000000000000000005
:102FCC0000000000000000000000000000000000F5
:102FDC000C2F0000000000000000000000000000AA
:102FEC0000000000000000000000000000000000D5
:102FFC0000000000000000000000000000000000C5
:10300C0000000000000000000000000000000000B4
:10301C003C2F000008FCFF1FE00000000000000037
:08302C0000000000000000009C
:067FFA0000203330C6C078
:0400000300002701D1
:00000001FF
